{
  "_format": "hh-sol-artifact-1",
  "contractName": "Counter",
  "sourceName": "contracts/Counter.sol",
  "abi": [
    {
      "anonymous": false,
      "inputs": [
        {
          "indexed": false,
          "internalType": "uint32",
          "name": "counter",
          "type": "uint32"
        }
      ],
      "name": "CounterInc",
      "type": "event"
    },
    {
      "inputs": [],
      "name": "count",
      "outputs": [],
      "stateMutability": "nonpayable",
      "type": "function"
    },
    {
      "inputs": [],
      "name": "counter",
      "outputs": [
        {
          "internalType": "uint32",
          "name": "",
          "type": "uint32"
        }
      ],
      "stateMutability": "view",
      "type": "function"
    },
    {
      "inputs": [],
      "name": "getCounter",
      "outputs": [
        {
          "internalType": "uint32",
          "name": "",
          "type": "uint32"
        }
      ],
      "stateMutability": "view",
      "type": "function"
    }
  ],
  "bytecode": "0x608060405234801561001057600080fd5b5061040a806100206000396000f3fe608060405234801561001057600080fd5b50600436106100415760003560e01c806306661abd1461004657806361bc221a146100505780638ada066e1461006e575b600080fd5b61004e61008c565b005b61005861016a565b604051610065919061027b565b60405180910390f35b61007661017e565b604051610083919061027b565b60405180910390f35b60008081819054906101000a900463ffffffff16809291906100ad906102c5565b91906101000a81548163ffffffff021916908363ffffffff160217905550506101216040518060400160405280600981526020017f436f756e7465723a20000000000000000000000000000000000000000000000081525060008054906101000a900463ffffffff1663ffffffff16610197565b7fb09f51db20aa473fdbfaa438388bca074ae4954884c8a48c9095abee19067dba60008054906101000a900463ffffffff16604051610160919061027b565b60405180910390a1565b60008054906101000a900463ffffffff1681565b60008060009054906101000a900463ffffffff16905090565b61022f82826040516024016101ad9291906103a4565b6040516020818303038152906040527f9710a9d0000000000000000000000000000000000000000000000000000000007bffffffffffffffffffffffffffffffffffffffffffffffffffffffff19166020820180517bffffffffffffffffffffffffffffffffffffffffffffffffffffffff8381831617835250505050610233565b5050565b60008151905060006a636f6e736f6c652e6c6f679050602083016000808483855afa5050505050565b600063ffffffff82169050919050565b6102758161025c565b82525050565b6000602082019050610290600083018461026c565b92915050565b7f4e487b7100000000000000000000000000000000000000000000000000000000600052601160045260246000fd5b60006102d08261025c565b915063ffffffff8214156102e7576102e6610296565b5b600182019050919050565b600081519050919050565b600082825260208201905092915050565b60005b8381101561032c578082015181840152602081019050610311565b8381111561033b576000848401525b50505050565b6000601f19601f8301169050919050565b600061035d826102f2565b61036781856102fd565b935061037781856020860161030e565b61038081610341565b840191505092915050565b6000819050919050565b61039e8161038b565b82525050565b600060408201905081810360008301526103be8185610352565b90506103cd6020830184610395565b939250505056fea26469706673582212207ea8a3653b144bb38b51972885c512f38c6f9ecb44cf0480f99e6d3056d64e3164736f6c634300080a0033",
  "linkReferences": {},
  "deployedLinkReferences": {}
}